:100000000C9434000C9451000C9451000C94510049
:100010000C9451000C9451000C9451000C9451001C
:100020000C9451000C9451000C9451000C946800F5
:100030000C9451000C9451000C9451000C945100FC
:100040000C9451000C9451000C9451000C945100EC
:100050000C9451000C9451000C9451000C945100DC
:100060000C9451000C94510011241FBECFEFD8E026
:10007000DEBFCDBF11E0A0E0B1E0E8EBF1E002C0EF
:1000800005900D92A230B107D9F721E0A2E0B1E0CE
:1000900001C01D92A430B207E1F70E94CE000C947B
:1000A000DA000C940000E1E8F0E080818860808351
:1000B00089EF90E09093890080938800AFE6B0E0EC
:1000C0008C9182608C938081836080837894089582
:1000D0001F920F920FB60F9211242F933F934F93BD
:1000E0005F936F937F938F939F93AF93BF93EF93A0
:1000F000FF93809102019091030101969093030177
:10010000809302012091020130910301809100014E
:10011000909101012817390738F085E00E94C4004A
:100120001092030110920201FF91EF91BF91AF91E4
:100130009F918F917F916F915F914F913F912F91FF
:100140000F900FBE0F901F90189594B121E030E0F2
:1001500001C0220F8A95EAF7922B94B9089595B1C0
:1001600021E030E001C0220F8A95EAF7922B95B981
:10017000089595B121E030E001C0220F8A95EAF799
:100180002095292325B9089595B121E030E001C0DB
:10019000220F8A95EAF7922795B9089585E00E9483
:1001A000A50084E190E090930101809300010E94FA
:0801B0005300FFCFF894FFCFCC
:0201B800E8035A
:00000001FF
